:100000000C945F000C9487000C9487000C9487007C
:100010000C9487000C9487000C9487000C94870044
:100020000C9487000C9487000C9487000C94870034
:100030000C9487000C9487000C9487000C94870024
:100040000C94EE040C9487000C945E050C94380517
:100050000C9487000C9487000C9487000C94870004
:100060000C9487000C9487000000000024002700F7
:100070002A0000000000250028002B0004040404CE
:100080000404040402020202020203030303030342
:10009000020102040810204080010204081020011F
:1000A0000204081020800000000800020100000384
:1000B000040700000000000000000000E205112419
:1000C0001FBECFEFD8E0DEBFCDBF11E0A0E0B1E0B2
:1000D000E2E7FCE002C005900D92A036B107D9F727
:1000E00022E0A0E6B1E001C01D92A231B207E1F723
:1000F00010E0CFE5D0E004C02197FE010E94310658
:10010000CE35D107C9F70E9490050C9437060C94A0
:10011000000090E0FC01EA55FF4F2491FC01EF56EE
:10012000FF4F3491FC01E458FF4FE491EE23C9F0F6
:10013000222339F0233001F1A8F4213019F12230C3
:1001400029F1F0E0EE0FFF1FEE58FF4FA591B4919B
:100150008FB7F894EC91611126C030953E233C9303
:100160008FBF08952730A9F02830C9F0243049F70F
:10017000809180008F7D03C0809180008F77809375
:100180008000DFCF84B58F7784BDDBCF84B58F7DD2
:10019000FBCF8091B0008F778093B000D2CF809159
:1001A000B0008F7DF9CF3E2BDACFCF93DF9390E075
:1001B000FC01EF56FF4F249184589F4FFC0184911E
:1001C0008823C9F090E0880F991FFC01E859FF4F80
:1001D000A591B491FC01EE58FF4FC591D4916111E6
:1001E0000DC09FB7F8948C91209582238C938881C1
:1001F000282328839FBFDF91CF910895623051F467
:100200009FB7F8943C91822F809583238C93E8814B
:100210002E2BEFCF8FB7F894EC912E2B2C938FBF12
:10022000EACF1F93CF93DF93182FEB0161E00E9479
:10023000D500209739F460E0812FDF91CF911F9195
:100240000C948900CF3FD10511F461E0F5CFE12F87
:10025000F0E0EA55FF4FE491E33031F140F4E13052
:10026000B1F0E230E1F0C038D1057CF7E4CFE730FF
:1002700029F1E83059F1E430B1F7809180008062D3
:1002800080938000D0938B00C0938A0004C084B513
:10029000806884BDC7BDDF91CF911F91089584B55B
:1002A000806284BDC8BDF7CF809180008068809354
:1002B0008000D0938900C0938800EDCF8091B0007A
:1002C00080688093B000C093B300E5CF8091B00008
:1002D00080628093B000C093B400DDCF8E3008F010
:1002E0008E508770806480937C0080917A00806457
:1002F00080937A0080917A0086FDFCCF809178000F
:100300009091790008953FB7F89480910E029091F2
:100310000F02A0911002B091110226B5A89B05C052
:100320002F3F19F00196A11DB11D3FBFBA2FA92F74
:10033000982F8827BC01CD01620F711D811D911D71
:1003400042E0660F771F881F991F4A95D1F70895DD
:100350008F929F92AF92BF92CF92DF92EF92FF92D5
:100360006B017C010E9483014B015C01C114D1042B
:10037000E104F104B9F00E948301681979098A093E
:100380009B09683E73408105910580F321E0C21A04
:10039000D108E108F10888EE880E83E0981EA11CC0
:1003A000B11CE4CFFF90EF90DF90CF90BF90AF9063
:1003B0009F908F900895AF92BF92CF92DF92EF926D
:1003C000FF920F931F93CF93DF936C017B018B01FF
:1003D000040F151FEB015E01AE18BF08C017D1074F
:1003E00059F06991D601ED91FC910190F081E02DD9
:1003F000C6010995892B79F7C501DF91CF911F912E
:100400000F91FF90EF90DF90CF90BF90AF90089545
:10041000FC01538D448D252F30E0842F90E0821B0A
:10042000930B541710F0CF96089501970895FC018F
:10043000918D828D981761F0A28DAE0FBF2FB11DE7
:100440005D968C91928D9F5F9F73928F90E008953F
:100450008FEF9FEF0895FC01918D828D981731F0F9
:10046000828DE80FF11D858D90E008958FEF9FEF4D
:100470000895FC01918D228D892F90E0805C9F4F23
:10048000821B91098F73992708958CE691E00E9451
:10049000390221E0892B09F420E0822F089580E0C1
:1004A00090E0892B29F00E94450281110C940000F4
:1004B0000895FC01A48DA80FB92FB11DA35ABF4FF9
:1004C0002C91848D90E001968F739927848FA68953
:1004D000B7892C93A089B1898C91837080648C93A7
:1004E000938D848D981306C00288F389E02D808156
:1004F0008F7D80830895EF92FF920F931F93CF9388
:10050000DF93EC0181E0888F9B8D8C8D98131AC04E
:10051000E889F989808185FF15C09FB7F894EE8935
:10052000FF896083E889F989808183708064808392
:100530009FBF81E090E0DF91CF911F910F91FF90DD
:10054000EF900895F62E0B8D10E00F5F1F4F0F7385
:100550001127E02E8C8D8E110CC00FB607FCFACF40
:10056000E889F989808185FFF5CFCE010E94590283
:10057000F1CFEB8DEC0FFD2FF11DE35AFF4FF08211
:100580009FB7F8940B8FEA89FB8980818062CFCF77
:10059000CF93DF93EC01888D8823B9F0AA89BB89BA
:1005A000E889F9898C9185FD03C0808186FD0DC0A5
:1005B0000FB607FCF7CF8C9185FFF2CF808185FFC6
:1005C000EDCFCE010E945902E9CFDF91CF9108957E
:1005D000CF92DF92EF92FF92CF93DF93EC016A010B
:1005E0007B01E889F98982E08083C11481EED80615
:1005F000E104F104A1F060E079E08DE390E0A7016F
:1006000096010E940F062150310941095109569562
:10061000479537952795211580E1380798F0E889A7
:10062000F989108260E874E88EE190E0A7019601F4
:100630000E940F06215031094109510956954795ED
:1006400037952795EC85FD853083EE85FF852083E2
:10065000188EEC89FD8986E08083EA89FB89808198
:1006600080618083EA89FB89808188608083EA8950
:10067000FB89808180688083EA89FB8980818F7D06
:100680008083DF91CF91FF90EF90DF90CF9008951E
:1006900040E855E260E070E08CE691E00E94E802FC
:1006A00061E089E00E94D50061E08AE00E94D50007
:1006B00061E08BE00E94D5000895FB0101900020CD
:1006C000E9F73197AF01461B570BDC01ED91FC9127
:1006D0000280F381E02D09948F929F92AF92BF9296
:1006E000EF92FF920F931F93CF93DF93CDB7DEB7B7
:1006F000A1970FB6F894DEBF0FBECDBF7C01FA0103
:10070000CB0119A2223008F42AE08E010F5D1F4FA1
:10071000822E912CB12CA12CBF01A50194010E9425
:100720000F06F901CA016A300CF5605DD8016E93BD
:100730008D01232B242B252B79F790E080E0109757
:1007400021F0BD01C7010E945D03A1960FB6F89488
:10075000DEBF0FBECDBFDF91CF911F910F91FF90F4
:10076000EF90BF90AF909F908F900895695CDECF1F
:10077000CF92DF92EF92FF920F931F93CF93DF936D
:100780004115510579F4DC01ED91FC910190F08166
:10079000E02DDF91CF911F910F91FF90EF90DF90AF
:1007A000CF9009946B01770FEE08FF084A3051058E
:1007B00011F52AE0F7FE20C0EC01E881F9810190F3
:1007C000F081E02D6DE209958C0144275527BA018F
:1007D0004C195D096E097F092AE0CE010E946C0365
:1007E000800F911FDF91CF911F910F91FF90EF909C
:1007F000DF90CF900895242FB701A601DF91CF910C
:100800001F910F91FF90EF90DF90CF900C946C03AD
:100810000F931F93CF93DF93EC010E94B8038C01D9
:1008200062E171E0CE010E945D03800F911FDF91B4
:10083000CF911F910F9108956115710511F00C94DE
:100840005D0390E080E008958EE00E946E01909339
:100850006B0180936A0165E070E080E090E00E94A7
:10086000A8018FE00E946E01909369018093680156
:1008700065E070E080E090E00E94A80180E10E94C5
:100880006E01909367018093660165E171E08CE6EB
:1008900091E00E941C0460916A0170916B014AE032
:1008A00050E08CE691E00E94B8036FE271E08CE6C4
:1008B00091E00E941C0460916801709169014AE016
:1008C00050E08CE691E00E94B80369E371E08CE6A9
:1008D00091E00E941C0460916601709167014AE0FA
:1008E00050E08CE691E00E94080480916A019091AA
:1008F0006B0199230CF46CC0959587959595879518
:1009000090936501809364018091680190916901E1
:1009100099230CF45FC0959587959595879590934D
:100920006301809362018091660190916701992330
:100930000CF452C095958795959587959093610194
:100940008093600162E471E08CE691E00E941C04F7
:1009500060916401709165014AE050E08CE691E09D
:100960000E94B8036FE271E08CE691E00E941C04E3
:1009700060916201709163014AE050E08CE691E081
:100980000E94B80369E371E08CE691E00E941C04C8
:1009900060916001709161014AE050E08CE691E065
:1009A0000E94080460916401709165018AE00E94D0
:1009B0001101609162017091630189E00E9411014F
:1009C00060916001709161018BE00E9411010895B6
:1009D000039692CF03969FCF0396ACCF1F920F92B0
:1009E0000FB60F9211242F933F938F939F93AF9342
:1009F000BF9380910A0290910B02A0910C02B091DA
:100A00000D023091090223E0230F2D3758F501968E
:100A1000A11DB11D2093090280930A0290930B023D
:100A2000A0930C02B0930D0280910E0290910F02E0
:100A3000A0911002B09111020196A11DB11D8093E9
:100A40000E0290930F02A0931002B0931102BF9177
:100A5000AF919F918F913F912F910F900FBE0F906B
:100A60001F90189526E8230F0296A11DB11DD2CF25
:100A70001F920F920FB60F9211242F933F934F9313
:100A80005F936F937F938F939F93AF93BF93EF93F6
:100A9000FF938CE691E00E945902FF91EF91BF9184
:100AA000AF919F918F917F916F915F914F913F9106
:100AB0002F910F900FBE0F901F9018951F920F92BD
:100AC0000FB60F9211242F938F939F93EF93FF9361
:100AD000E0917C01F0917D018081E0918201F091B3
:100AE000830182FD1BC09081809185018F5F8F7390
:100AF00020918601821741F0E0918501F0E0E459F0
:100B0000FE4F958F80938501FF91EF919F918F917B
:100B10002F910F900FBE0F901F9018958081F4CFEA
:100B2000789484B5826084BD84B5816084BD85B5C8
:100B3000826085BD85B5816085BD80916E008160D4
:100B400080936E001092810080918100826080937A
:100B5000810080918100816080938100809180007C
:100B60008160809380008091B10084608093B100A7
:100B70008091B00081608093B00080917A008460A1
:100B800080937A0080917A00826080937A008091CD
:100B90007A00816080937A0080917A0080688093E7
:100BA0007A001092C1000E944803C0E0D0E00E9489
:100BB00024042097E1F30E9445028823C1F30E9498
:100BC0000000F5CFECE6F1E01382128288EE93E0AC
:100BD000A0E0B0E084839583A683B78384E091E0AE
:100BE0009183808385EC90E09587848784EC90E006
:100BF0009787868780EC90E0918B808B81EC90E0EA
:100C0000938B828B82EC90E0958B848B86EC90E0CA
:100C1000978B868B118E128E138E148E0895A1E2FF
:100C20001A2EAA1BBB1BFD010DC0AA1FBB1FEE1F66
:100C3000FF1FA217B307E407F50720F0A21BB30BB1
:100C4000E40BF50B661F771F881F991F1A9469F72D
:100C500060957095809590959B01AC01BD01CF0189
:100C60000895EE0FFF1F0590F491E02D0994F8947C
:020C7000FFCFB4
:100C7200000000007B02DB010802C80239021702F1
:100C82002B020D0A007261772073656E736F7220FA
:100C920056616C7565732009207265643A200009FB
:100CA20020677265656E3A20000920426C75653ACC
:100CB20020004D61707065642073656E736F7220E1
:100CC20056616C7565732009207265643A200000D4
:00000001FF
