:100000000C945F000C9487000C9487000C9487007C
:100010000C9487000C9487000C9487000C94870044
:100020000C9487000C9487000C9487000C94870034
:100030000C9487000C9487000C9487000C94870024
:100040000C9484050C9487000C94F4050C94CE0554
:100050000C9487000C9487000C9487000C94870004
:100060000C9487000C9487000000000024002700F7
:100070002A0000000000250028002B0004040404CE
:100080000404040402020202020203030303030342
:10009000020102040810204080010204081020011F
:1000A0000204081020800000000800020100000384
:1000B0000407000000000000000000007806112482
:1000C0001FBECFEFD8E0DEBFCDBF11E0A0E0B1E0B2
:1000D000E6E1F2E102C005900D92A834B107D9F72C
:1000E00021E0A8E4B1E001C01D92AE3EB207E1F705
:1000F00010E0CFE5D0E004C02197FE010E94030983
:10010000CE35D107C9F70E9426060C9409090C9434
:10011000000090E0FC01EA55FF4F2491FC01EF56EE
:10012000FF4F3491FC01E458FF4FE491EE23C9F0F6
:10013000222339F0233001F1A8F4213019F12230C3
:1001400029F1F0E0EE0FFF1FEE58FF4FA591B4919B
:100150008FB7F894EC91611126C030953E233C9303
:100160008FBF08952730A9F02830C9F0243049F70F
:10017000809180008F7D03C0809180008F77809375
:100180008000DFCF84B58F7784BDDBCF84B58F7DD2
:10019000FBCF8091B0008F778093B000D2CF809159
:1001A000B0008F7DF9CF3E2BDACFCF93DF9390E075
:1001B000FC01EF56FF4F249184589F4FFC0184911E
:1001C0008823C9F090E0880F991FFC01E859FF4F80
:1001D000A591B491FC01EE58FF4FC591D4916111E6
:1001E0000DC09FB7F8948C91209582238C938881C1
:1001F000282328839FBFDF91CF910895623051F467
:100200009FB7F8943C91822F809583238C93E8814B
:100210002E2BEFCF8FB7F894EC912E2B2C938FBF12
:10022000EACF8E3008F08E508770806480937C0017
:1002300080917A00806480937A0080917A0086FDB4
:10024000FCCF809178009091790008953FB7F894A1
:100250008091EA019091EB01A091EC01B091ED0148
:1002600026B5A89B05C02F3F19F00196A11DB11D11
:100270003FBFBA2FA92F982F8827BC01CD01620F4D
:10028000711D811D911D42E0660F771F881F991F08
:100290004A95D1F708958F929F92AF92BF92CF92D5
:1002A000DF92EF92FF926B017C010E9426014B01CD
:1002B0005C01C114D104E104F104B9F00E942601EB
:1002C000681979098A099B09683E7340810591057F
:1002D00080F321E0C21AD108E108F10888EE880E07
:1002E00083E0981EA11CB11CE4CFFF90EF90DF903B
:1002F000CF90BF90AF909F908F900895DC01ED91CB
:10030000FC910190F081E02D0994AF92BF92CF92C1
:10031000DF92EF92FF920F931F93CF93DF936C01C5
:100320007B018B01040F151FEB015E01AE18BF08A6
:10033000C017D10759F06991D601ED91FC91019058
:10034000F081E02DC6010995892B79F7C501DF9170
:10035000CF911F910F91FF90EF90DF90CF90BF90C2
:10036000AF900895FC01538D448D252F30E0842FEC
:1003700090E0821B930B541710F0CF9608950197CD
:100380000895FC01918D828D981761F0A28DAE0FBA
:10039000BF2FB11D5D968C91928D9F5F9F73928F41
:1003A00090E008958FEF9FEF0895FC01918D828D6D
:1003B000981731F0828DE80FF11D858D90E008953A
:1003C0008FEF9FEF0895FC01918D228D892F90E092
:1003D000805C9F4F821B91098F739927089588E451
:1003E00091E00E94E30121E0892B09F420E0822FB3
:1003F000089580E090E0892B29F00E94EF0181119F
:100400000C9400000895FC01A48DA80FB92FB11D14
:10041000A35ABF4F2C91848D90E001968F7399273A
:10042000848FA689B7892C93A089B1898C91837018
:1004300080648C93938D848D981306C00288F38911
:10044000E02D80818F7D80830895EF92FF920F933E
:100450001F93CF93DF93EC0181E0888F9B8D8C8D70
:1004600098131AC0E889F989808185FF15C09FB764
:10047000F894EE89FF896083E889F9898081837027
:10048000806480839FBF81E090E0DF91CF911F91D6
:100490000F91FF90EF900895F62E0B8D10E00F5FF7
:1004A0001F4F0F731127E02E8C8D8E110CC00FB6CD
:1004B00007FCFACFE889F989808185FFF5CFCE0165
:1004C0000E940302F1CFEB8DEC0FFD2FF11DE35ADB
:1004D000FF4FF0829FB7F8940B8FEA89FB898081E8
:1004E0008062CFCFCF93DF93EC01888D8823B9F062
:1004F000AA89BB89E889F9898C9185FD03C080812F
:1005000086FD0DC00FB607FCF7CF8C9185FFF2CFAB
:10051000808185FFEDCFCE010E940302E9CFDF91FC
:10052000CF910895CF92DF92EF92FF92CF93DF9316
:10053000EC016A017B01E889F98982E08083C114BA
:1005400081EED806E104F104A1F060E079E08DE3EA
:1005500090E0A70196010E94E1082150310941096C
:1005600051095695479537952795211580E138070C
:1005700098F0E889F989108260E874E88EE190E0EB
:10058000A70196010E94E108215031094109510952
:100590005695479537952795EC85FD853083EE85F3
:1005A000FF852083188EEC89FD8986E08083EA89A7
:1005B000FB89808180618083EA89FB8980818860F2
:1005C0008083EA89FB89808180688083EA89FB894E
:1005D00080818F7D8083DF91CF91FF90EF90DF90BE
:1005E000CF900895CF9340E855E260E070E088E452
:1005F00091E00E949202C2E061E08C2F0E94D5003F
:1006000060E08C2F0E948900CF5FC530A9F7CF91A1
:100610000895FB0101900020E9F73197AF01461BD7
:10062000570BDC01ED91FC910280F381E02D0994E0
:100630008F929F92AF92BF92EF92FF920F931F9370
:10064000CF93DF93CDB7DEB7A1970FB6F894DEBF97
:100650000FBECDBF7C01FA01CB0119A2223008F4F4
:100660002AE08E010F5D1F4F822E912CB12CA12C00
:10067000BF01A50194010E94E108F901CA016A3095
:100680000CF5605DD8016E938D01232B242B252B57
:1006900079F790E080E0109721F0BD01C7010E943A
:1006A0000903A1960FB6F894DEBF0FBECDBFDF9150
:1006B000CF911F910F91FF90EF90BF90AF909F90BF
:1006C0008F900895695CDECFCF92DF92EF92FF9218
:1006D0000F931F93CF93DF934115510579F4DC01FC
:1006E000ED91FC910190F081E02DDF91CF911F9170
:1006F0000F91FF90EF90DF90CF9009946B01770FEF
:10070000EE08FF084A305105F1F42AE0F7FE1CC05C
:10071000EC016DE20E947E018C0144275527BA014D
:100720004C195D096E097F092AE0CE010E94180369
:10073000800F911FDF91CF911F910F91FF90EF904C
:10074000DF90CF900895242FB701A601DF91CF91BC
:100750001F910F91FF90EF90DF90CF900C941803B2
:100760006115710511F00C94090390E080E0089583
:100770002F923F924F925F926F927F928F929F92B1
:10078000AF92BF92CF92DF92EF92FF921F93CF93DF
:10079000DF93EC016A017B01722EAB019601CB0164
:1007A000B6010E94DC0862E171E0811126C04601B9
:1007B0005701E894B7F82FEF3FEF4FE75FE7C50128
:1007C000B4010E94DC0881110CC02FEF3FEF4FE70E
:1007D0005FE7C501B4010E94120766E171E01816D7
:1007E00064F02FEF3FEF4FE75FE4C701B6010E94CF
:1007F0006A081816B4F46AE171E0CE01DF91CF9176
:100800001F91FF90EF90DF90CF90BF90AF909F909F
:100810008F907F906F905F904F903F902F900C94AF
:1008200009032FEF3FEF4FE75FECC701B6010E94CE
:10083000120787FDE0CF20E030E0A901C701B60133
:100840000E941207312C212C87FF09C06DE2CE01D6
:100850000E947E011C01F7FAF094F7F8F09410E082
:1008600060E070E080E09FE3711641F020E030E04E
:1008700040E251E40E9417071F5FF6CFA7019601DF
:100880000E94A6062B013C010E9489074B015C01D6
:100890002AE0BC01A401CE010E9418037C01E20CF5
:1008A000F31C1123C1F1C501B4010E94B8079B01DB
:1008B000AC01C301B2010E94A5064B015C016EE2CE
:1008C000CE010E947E01E80EF91E115020F120E0B9
:1008D00030E040E251E4C501B4010E946F082B01F1
:1008E0003C010E9489074B01B12CA12C2AE0B501E3
:1008F000A401CE010E941803E80EF91EC501B4013F
:100900000E94B8079B01AC01C301B2010E94A50679
:100910004B015C01DACFC701DF91CF911F91FF90AE
:10092000EF90DF90CF90BF90AF909F908F907F908F
:100930006F905F904F903F902F9008950F931F936B
:10094000CF93DF93EC010E94B8038C016EE171E05C
:10095000CE010E940903800F911FDF91CF911F915B
:100960000F9108950C94B803CF92DF92EF92FF920B
:100970008EE00E9411017C0161E271E088E491E067
:100980000E94B0034AE050E0B70188E491E00E9481
:100990006403B701FF0C880B990B0E94BA0720E093
:1009A00030E040E85AE30E946F0820E030E040EA7F
:1009B00050E40E946F086B017C0160E371E088E401
:1009C00091E00E94B00322E030E0B701A60188E484
:1009D00091E00E94B2046AE371E088E491E00E9431
:1009E000B00320E030E040E05FE3C701B6010E94C1
:1009F000A50620E030E048EC52E40E946F086B014D
:100A00007C0122E030E0BC01A60188E491E00E9474
:100A10009E0420E030E040EB51E4C701B6010E94A3
:100A200012078823ECF120E030E040EB51E4C701ED
:100A3000B6010E946A08882354F020E030E040ECC0
:100A400051E4C701B6010E9412078823B4F120E0E7
:100A500030E040EC51E4C701B6010E946A088823E7
:100A600054F020E030E040ED51E4C701B6010E94AF
:100A7000120788237CF120E030E040ED51E4C7010B
:100A8000B6010E946A08882394F561E070E080E076
:100A900090E00E944B01FF90EF90DF90CF9008957F
:100AA00060E082E00E94890060E083E00E948900AB
:100AB00060E084E00E948900E8CF61E082E00E946B
:100AC000890060E083E00E94890060E084E00E9489
:100AD0008900DBCF61E082E00E94890061E083E071
:100AE0000E94890060E084E00E948900CECF61E02E
:100AF00082E00E94890061E083E00E94890061E059
:100B000084E00E948900C1CF1F920F920FB60F920E
:100B100011242F933F938F939F93AF93BF93809113
:100B2000E6019091E701A091E801B091E9013091CF
:100B3000E50123E0230F2D3758F50196A11DB11DC6
:100B40002093E5018093E6019093E701A093E801EB
:100B5000B093E9018091EA019091EB01A091EC0141
:100B6000B091ED010196A11DB11D8093EA01909312
:100B7000EB01A093EC01B093ED01BF91AF919F9178
:100B80008F913F912F910F900FBE0F901F9018954E
:100B900026E8230F0296A11DB11DD2CF1F920F92FE
:100BA0000FB60F9211242F933F934F935F936F9340
:100BB0007F938F939F93AF93BF93EF93FF9388E4BB
:100BC00091E00E940302FF91EF91BF91AF919F913D
:100BD0008F917F916F915F914F913F912F910F90E6
:100BE0000FBE0F901F9018951F920F920FB60F9285
:100BF00011242F938F939F93EF93FF93E0915801CC
:100C0000F09159018081E0915E01F0915F0182FDD8
:100C10001BC09081809161018F5F8F732091620171
:100C2000821741F0E0916101F0E0E85BFE4F958FA3
:100C300080936101FF91EF919F918F912F910F9080
:100C40000FBE0F901F9018958081F4CF789484B5D3
:100C5000826084BD84B5816084BD85B5826085BDB8
:100C600085B5816085BD80916E00816080936E0046
:100C70001092810080918100826080938100809138
:100C800081008160809381008091800081608093E9
:100C900080008091B10084608093B1008091B000A9
:100CA00081608093B00080917A00846080937A00A4
:100CB00080917A00826080937A0080917A008160CE
:100CC00080937A0080917A00806880937A001092F5
:100CD000C1000E94F202C0E0D0E00E94B40420975C
:100CE000E1F30E94EF018823C1F30E940000F5CFD9
:100CF000E8E4F1E01382128288EE93E0A0E0B0E035
:100D000084839583A683B78384E091E09183808375
:100D100085EC90E09587848784EC90E097878687C0
:100D200080EC90E0918B808B81EC90E0938B828BB8
:100D300082EC90E0958B848B86EC90E0978B868B91
:100D4000118E128E138E148E08955058BB27AA2729
:100D50000E94BD060C9430080E94220838F00E94C0
:100D6000290820F039F49F3F19F426F40C941F0849
:100D70000EF4E095E7FB0C941908E92F0E94410856
:100D800058F3BA17620773078407950720F079F4C0
:100D9000A6F50C9463080EF4E0950B2EBA2FA02D47
:100DA0000B01B90190010C01CA01A0011124FF2718
:100DB000591B99F0593F50F4503E68F11A16F04013
:100DC000A22F232F342F4427585FF3CF4695379512
:100DD0002795A795F0405395C9F77EF41F16BA0BD7
:100DE000620B730B840BBAF09150A1F0FF0FBB1F85
:100DF000661F771F881FC2F70EC0BA0F621F731FCE
:100E0000841F48F4879577956795B795F7959E3F2A
:100E100008F0B0CF9395880F08F09927EE0F9795BB
:100E2000879508950E94F50708F481E008950E94CF
:100E30002B070C9430080E94290858F00E942208C1
:100E400040F029F45F3F29F00C94190851110C94DB
:100E500064080C941F080E94410868F39923B1F3B9
:100E6000552391F3951B550BBB27AA2762177307D0
:100E7000840738F09F5F5F4F220F331F441FAA1F64
:100E8000A9F335D00E2E3AF0E0E832D09150504020
:100E9000E695001CCAF72BD0FE2F29D0660F771FCE
:100EA000881FBB1F261737074807AB07B0E809F0B4
:100EB000BB0B802DBF01FF2793585F4F3AF09E3F39
:100EC000510578F00C9419080C9464085F3FE4F322
:100ED000983ED4F3869577956795B795F7959F5F7C
:100EE000C9F7880F911D9695879597F90895E1E0C8
:100EF000660F771F881FBB1F621773078407BA0727
:100F000020F0621B730B840BBA0BEE1F88F7E09581
:100F100008950E94490888F09F5798F0B92F9927A3
:100F2000B751B0F0E1F0660F771F881F991F1AF0D4
:100F3000BA95C9F714C0B13091F00E946308B1E0CE
:100F400008950C946308672F782F8827B85F39F0CD
:100F5000B93FCCF3869577956795B395D9F73EF46D
:100F600090958095709561957F4F8F4F9F4F089515
:100F7000E89409C097FB3EF4909580957095619533
:100F80007F4F8F4F9F4F9923A9F0F92F96E9BB27E9
:100F90009395F695879577956795B795F111F8CF65
:100FA000FAF4BB0F11F460FF1BC06F5F7F4F8F4FD0
:100FB0009F4F16C0882311F096E911C0772321F0C6
:100FC0009EE8872F762F05C0662371F096E8862F5E
:100FD00070E060E02AF09A95660F771F881FDAF7B5
:100FE000880F9695879597F90895990F0008550FE2
:100FF000AA0BE0E8FEEF16161706E807F907C0F09F
:1010000012161306E407F50798F0621B730B840BA6
:10101000950B39F40A2661F0232B242B252B21F480
:1010200008950A2609F4A140A6958FEF811D811D20
:10103000089597F99F6780E870E060E008959FEF5A
:1010400080EC089500240A9416161706180609065F
:10105000089500240A94121613061406050608952E
:10106000092E0394000C11F4882352F0BB0F40F4B6
:10107000BF2B11F460FF04C06F5F7F4F8F4F9F4FF6
:10108000089557FD9058440F551F59F05F3F71F078
:101090004795880F97FB991F61F09F3F79F08795DF
:1010A0000895121613061406551FF2CF4695F1DF68
:1010B00008C0161617061806991FF1CF86957105F8
:1010C000610508940895E894BB2766277727CB012C
:1010D00097F908950E94F50708F48FEF08950E948C
:1010E00082080C9430080E94220838F00E942908D7
:1010F00020F0952311F00C9419080C941F0811246A
:101100000C9464080E94410870F3959FC1F3950FF9
:1011100050E0551F629FF001729FBB27F00DB11D7B
:10112000639FAA27F00DB11DAA1F649F6627B00D0B
:10113000A11D661F829F2227B00DA11D621F739FF4
:10114000B00DA11D621F839FA00D611D221F749F02
:101150003327A00D611D231F849F600D211D822F49
:10116000762F6A2F11249F5750409AF0F1F0882370
:101170004AF0EE0FFF1FBB1F661F771F881F91509D
:101180005040A9F79E3F510580F00C9419080C942B
:1011900064085F3FE4F3983ED4F3869577956795AE
:1011A000B795F795E7959F5FC1F7FE2B880F911DC7
:1011B0009695879597F908950E94F507880B990BE6
:1011C0000895A1E21A2EAA1BBB1BFD010DC0AA1F88
:1011D000BB1FEE1FFF1FA217B307E407F50720F0A0
:1011E000A21BB30BE40BF50B661F771F881F991F1B
:1011F0001A9469F760957095809590959B01AC0164
:10120000BD01CF010895EE0FFF1F0590F491E02D71
:061210000994F894FFCFE1
:101216000000000025028501B2017202E301C1014E
:10122600D5016E616E00696E66006F7666000D0A06
:101236000073656E736F722056616C75653A200097
:101246002C20566F6C74733A20002C2064656772EC
:0812560065657320433A200096
:00000001FF
