:100000000C9463000C9475000C9475000C947500AE
:100010000C9475000C9475000C9475000C9475008C
:100020000C9475000C9475000C9475000C9475007C
:100030000C9475000C9475000C9475000C9475006C
:100040000C944B010C9475000C9475000C94750085
:100050000C9475000C9475000C9475000C9475004C
:100060000C9475000C94750000000000240027001B
:100070002A0000000000250028002B0000000000DE
:1000800023002600290004040404040404040202DA
:100090000202020203030303030302010204081025
:1000A0002040800102040810200102040810208072
:1000B0000000000800020100000304070000000027
:1000C00000000000000011241FBECFEFD8E0DEBF0B
:1000D000CDBF21E0A0E0B1E001C01D92A930B20780
:1000E000E1F70E9495010C94E3010C940000833029
:1000F00081F028F4813099F08230A9F0089587309A
:10010000A9F08830C9F08430B1F4809180008F7DEF
:1001100003C0809180008F7780938000089584B51C
:100120008F7784BD089584B58F7DFBCF8091B0001B
:100130008F778093B00008958091B0008F7DF9CFC4
:10014000CF93DF93282F30E0F901E055FF4F8491E2
:10015000F901E556FF4FD491F901EA57FF4FC491D9
:10016000CC23A1F081110E947700EC2FF0E0EE0F7C
:10017000FF1FE458FF4FA591B491EC91ED2381E06E
:1001800090E009F480E0DF91CF91089580E090E065
:10019000FACF1F93CF93DF93282F30E0F901E0557A
:1001A000FF4F8491F901E556FF4FD491F901EA57C9
:1001B000FF4FC491CC23A9F0162F81110E94770024
:1001C000EC2FF0E0EE0FFF1FEE58FF4FA591B4911A
:1001D0008FB7F894EC91111108C0D095DE23DC9311
:1001E0008FBFDF91CF911F910895DE2BF8CFCF9372
:1001F000DF9390E0FC01E556FF4F24918A579F4F13
:10020000FC0184918823C9F090E0880F991FFC01BC
:10021000E859FF4FA591B491FC01EE58FF4FC591ED
:10022000D49161110DC09FB7F8948C9120958223D1
:100230008C938881282328839FBFDF91CF910895D5
:10024000623051F49FB7F8943C91822F80958323BC
:100250008C93E8812E2BEFCF8FB7F894EC912E2B57
:100260002C938FBFEACF82E00E94A000019729F073
:1002700060E088E00E94C900089561E088E00E9483
:10028000C900089560E082E00E94F70061E088E024
:100290000E94F70008951F920F920FB60F9211243B
:1002A0002F933F938F939F93AF93BF9380910501BB
:1002B00090910601A0910701B091080130910401CD
:1002C00023E0230F2D3758F50196A11DB11D209372
:1002D00004018093050190930601A0930701B09358
:1002E00008018091000190910101A0910201B0915B
:1002F00003010196A11DB11D80930001909301019E
:10030000A0930201B0930301BF91AF919F918F9190
:100310003F912F910F900FBE0F901F90189526E8D8
:10032000230F0296A11DB11DD2CF789484B58260AF
:1003300084BD84B5816084BD85B5826085BD85B589
:10034000816085BD80916E00816080936E00109207
:100350008100809181008260809381008091810082
:100360008160809381008091800081608093800013
:100370008091B10084608093B1008091B000816071
:100380008093B00080917A00846080937A0080919D
:100390007A00826080937A0080917A0081608093F5
:1003A0007A0080917A00806880937A001092C10070
:1003B0000E944201C0E0D0E00E9433012097E1F3A7
:0A03C0000E940000F9CFF894FFCF6F
:00000001FF
