:100000000C9463000C9480000C9480000C9480008D
:100010000C9480000C9480000C9480000C94800060
:100020000C9480000C9480000C9480000C94800050
:100030000C9480000C9480000C9480000C94800040
:100040000C94D9000C9480000C9480000C948000D7
:100050000C9480000C9480000C9480000C94800020
:100060000C9480000C948000000000002400270005
:100070002A000000000023002600290000000000E4
:10008000250028002B0004040404040404040202D4
:100090000202020203030303030302010204081025
:1000A0002040800102040810200102040810208072
:1000B0000000000800020100000304070000000027
:1000C00000000000000011241FBECFEFD8E0DEBF0B
:1000D000CDBF11E0A0E0B1E0E6E7F4E002C005909A
:1000E0000D92A230B107D9F721E0A2E0B1E001C042
:1000F0001D92A331B207E1F70E9423010C9439024B
:100100000C940000833081F028F4813099F0823023
:10011000A9F008958730A9F08830C9F08430B1F48F
:10012000809180008F7D03C0809180008F778093C5
:100130008000089584B58F7784BD089584B58F7D40
:10014000FBCF8091B0008F778093B00008958091AD
:10015000B0008F7DF9CF1F93CF93DF93282F30E02E
:10016000F901E055FF4F8491F901E556FF4FD49115
:10017000F901EA57FF4FC491CC23A9F0162F811142
:100180000E948200EC2FF0E0EE0FFF1FE458FF4FBB
:10019000A591B4918FB7F894EC91111108C0D09546
:1001A000DE23DC938FBFDF91CF911F910895DE2B6B
:1001B000F8CF1F920F920FB60F9211242F933F93F7
:1001C0008F939F93AF93BF9380910F0190911001F4
:1001D000A0911101B091120130910E0123E0230F83
:1001E0002D3758F50196A11DB11D20930E01809366
:1001F0000F0190931001A0931101B093120180910F
:100200000A0190910B01A0910C01B0910D01019692
:10021000A11DB11D80930A0190930B01A0930C01C5
:10022000B0930D01BF91AF919F918F913F912F910D
:100230000F900FBE0F901F90189526E8230F02967F
:10024000A11DB11DD2CF789484B5826084BD84B5E0
:10025000816084BD85B5826085BD85B5816085BDC1
:1002600080916E00816080936E0010928100809179
:100270008100826080938100809181008160809301
:100280008100809180008160809380008091B10026
:1002900084608093B1008091B00081608093B00051
:1002A00080917A00846080937A0080917A008260E5
:1002B00080937A0080917A00816080937A008091A7
:1002C0007A00806880937A001092C10022E030E0CA
:1002D000F901E556FF4F4491F901EA57FF4F849128
:1002E000882399F090E0880F991FFC01E859FF4F8F
:1002F000A591B491FC01E458FF4F859194918FB77B
:10030000F894EC91E42BEC938FBF2F5F3F4F283094
:100310003105F1F653EA652E50E0752EF301249174
:100320006EE8C62E60E0D62EF60184918823C1F0D7
:1003300090E0880F991FFC01E859FF4FA591B491F7
:10034000FC01E458FF4FC591D4913FB7F8949C91BC
:10035000822F809598239C939881892388833FBF1F
:1003600028EB422E20E0522E00E010E032E0E32E97
:10037000F12C8FB7F89480900F0190901001A0900D
:100380001101B09012018FBF809106019091070179
:10039000A0910801B0910901A5019401281B390B16
:1003A0004A0B5B0BDA01C901813C9742A940B105B8
:1003B000A8F08092060190920701A0920801B092E5
:1003C0000901C0910001D091010161E08C2F0E94D0
:1003D000AB002196D0930101C0930001F2018491FA
:1003E000F301C491F601D491DD2309F43FC08111DA
:1003F0000E948200ED2FF0E0EE0FFF1FEE58FF4F3E
:10040000A591B4918C91C82391E080E009F490E02B
:10041000C92FD82FD0930501C09304018091020108
:10042000909103018C179D07B1F082E0382E60E0B7
:10043000832D0E94AB003394F8E03F12F8CFF09286
:100440000101E09200018092060190920701A092C2
:100450000801B0920901D0930301C0930201011574
:10046000110509F486CF0E94000083CFD0E0C0E0E0
:06047000D1CFF894FFCF8C
:02047600020082
:00000001FF
